:100000000080002091010000BD010000BD01000042
:10001000BD010000BD010000BD010000BD010000E8
:10002000BD010000BD010000BD010000BD010000D8
:10003000BD010000BC010000BD010000BD010000C9
:10004000BD010000BD010000BD010000BD010000B8
:10005000BD010000BD010000BD010000BD010000A8
:10006000BD010000BD010000BD010000BD01000098
:10007000BD010000BD010000BD010000BD01000088
:10008000BD010000BD010000BD010000BD01000078
:10009000BD010000BD010000BD010000BD01000068
:1000A000BD010000BD010000BD010000BD01000058
:1000B000BD010000BD010000BD010000BD01000048
:1000C000BD010000BD01000010B5054C237833B917
:1000D000044B13B10448AFF300800123237010BD1B
:1000E00080000020000000007411000008B5064BDD
:1000F0001BB106480649AFF300800648036813B1F8
:10010000054B03B1984708BD0000000074110000C2
:10011000840000207C00002000000000154B002B14
:1001200008BF134B9D46A3F5803A00218B460F462E
:100130001348144A121A00F0F5FF0F4B002B00D0A1
:1001400098470E4B002B00D0984700200021040058
:100150000D000D48002802D00C48AFF3008000F0DD
:10016000BBFF2000290000F051FF00F0A1FF00BFFD
:1001700000000800008000200000000000000000D7
:10018000800000209C000020000000000000000013
:10019000064880470649074A074B9A42BEBF51F8B6
:1001A000040B42F8040BF8E7FFF7B8FF8D020000DC
:1001B000801100000000002080000020FEE700BF4A
:1001C00080B582B000AF00F01DF878600A4BD3F81C
:1001D00008210A4B13401B0A3B603B6801337A68D5
:1001E000B2FBF3F37B60064B7A681A607B681846B3
:1001F0000837BD4680BD00BF00400E4000FF010033
:100200000800002080B483B000AF164BD3F89430C0
:1002100003F00703032B08D0042B02D0022B08D0D5
:100220000BE0114B1B687B600BE04FF400437B60DD
:1002300007E00E4B1B687B6003E00D4B1B687B6087
:1002400000BF084BD3F8003103F4F8531B0A013305
:100250007A68B2FBF3F318460C37BD465DF8047BB1
:10026000704700BF00400E40040000200000002046
:100270000C00002080B400AF034B1B681846BD463D
:100280005DF8047B704700BF0000002080B400AF21
:10029000134B144A9A60124B114AD2F8882042F448
:1002A0007002C3F88820104B0F4A526D42F400527E
:1002B0005A650D4B0C4A126C22F003021A640B4B68
:1002C0000A4A126822F001021A60094B084A1268B1
:1002D00022F080521A60BD465DF8047B704700BF73
:1002E00000ED00E00000000000300E4074300E40D1
:1002F00060300E4080B400AF4FF400431846BD4656
:100300005DF8047B704700BF80B400AF4FF47A7390
:100310001846BD465DF8047B704700BF80B400AF4F
:10032000034B1B681846BD465DF8047B704700BF51
:100330000400002080B487B000AFF860B9607A6034
:10034000FB6803F10473DA00BB6813449B007B6114
:100350007B697A681A601C37BD465DF8047B70477C
:1003600080B483B000AF78607B68012202FA03F3A7
:1003700018460C37BD465DF8047B704780B483B0E7
:1003800000AF054B1B687B607B6818460C37BD4689
:100390005DF8047B704700BF1000002080B582B07C
:1003A00000AFFFF72FFF7860064BD3F8003103F45E
:1003B000F8531B0A01337A6802FB03F31846083727
:1003C000BD4680BD00400E4080B582B000AF0D48F4
:1003D00000F02CFA0346FB70FB78072B05D0092BA5
:1003E00007D1FFF70FFF786006E0FFF7C7FF7860DF
:1003F00002E000237B6000BF7B6818460837BD46DB
:1004000080BD00BF06000E0080B584B000AF7860EC
:100410007B68002B1CD11B4800F008FA0346FB72D6
:1004200000BFFB7A013B072B23D801A252F823F02F
:10043000550400007304000073040000630400000E
:1004400073040000730400005B0400006B040000F0
:10045000002312E00023FB600EE0FFF78FFFF8603F
:100460000AE0FFF707FFF86006E0FFF797FFF86084
:1004700002E00023FB6000BFFB6818461037BD4652
:1004800080BD00BFB800320090B585B000AF786085
:100490000023BB607B68354A934206D0344A9342BE
:1004A00003D0344A934200D000E000BF786800F0E7
:1004B000BDF90346FB607B682C4A93420DD02C4A61
:1004C000934211D02B4A934200D014E02A4BD3F828
:1004D000803003F00703FB600DE0274BD3F8843036
:1004E00003F00703FB6006E0234BD3F8883003F0EA
:1004F0000703FB6000BFFB68042B2ED801A252F853
:1005000023F000BF5505000019050000210500007B
:100510003105000029050000FFF7ECFEB8601FE080
:10052000FFF7FCFEB8601BE0FFF7EEFEB86017E0D7
:10053000FFF746FE0446104BD3F8003103F08073FA
:100540001B0E01331846FFF70BFF0346B4FBF3F312
:10055000BB6005E00023BB6002E00023BB6000BF7E
:10056000BB6818461437BD4690BD00BF030020008D
:100570000500240002001E0000400E4080B483B03D
:1005800000AF78600A4BD3F8443103F00103002B2D
:1005900000D007E000BF064BD3F840217B68134032
:1005A000002BF8D10C37BD465DF8047B704700BFC7
:1005B00000400E4080B586B000AF78600B46FB70FF
:1005C00000233B617B681B0A03F00F03013B092BEF
:1005D00044D801A252F823F0010600000D060000E5
:1005E0005D0600005D06000007060000130600001F
:1005F0001D0600005D06000027060000330600000F
:10060000184B7B6118E0184B7B6115E0174B7B6141
:1006100012E0174B7B6101233B610DE0154B7B61C1
:1006200010233B6108E0144B7B614FF480333B6146
:1006300002E0124B7B6100BF7B681B0B03F01F03C2
:10064000FB603B69002B02D03869FFF797FFFB780E
:100650007869F9681A46FFF76DFE00E000BF1837A9
:10066000BD4680BD00400E40B0400E40C0400E4030
:10067000E0400E40E8400E40F0400E4050410E4039
:1006800080B584B000AF78607B6803F47813B3F56D
:10069000801F00F0AF80B3F5801F16D8B3F5802F10
:1006A00032D0B3F5802F05D8002B29D0B3F5003F09
:1006B0003DD0A8E0B3F5402F48D0B3F5602F00F04F
:1006C0009580B3F5202F2ED09DE0B3F5F01F4CD0D0
:1006D000B3F5F01F09D8B3F5B01F59D0B3F5D01F4B
:1006E0006DD0B3F5A01F45D08DE0B3F5101F78D0C5
:1006F000B3F5481F00F08280B3F5001F5AD082E0A6
:10070000FFF780FDF86081E0FFF77CFDF860424B69
:10071000D3F80C21414B13401B0A0133FA68B2FB9A
:10072000F3F3FB6072E0FFF76DFDF8606EE0FFF73A
:1007300069FDF860384BD3F80821384B13401B0A89
:100740000133FA68B2FBF3F3FB605FE0FFF75AFD99
:10075000F860314BD3F8143103F4F8531B0A01331A
:10076000FA68B2FBF3F3FB6050E02D48FFF78CFE14
:10077000F8604BE02B48FFF787FEF860264BD3F874
:10078000303103F00F03FA6822FA03F3FB603DE017
:100790002348FFF779FEF8601F4BD3F8203103F0B0
:1007A0000F031846FFF7DCFD0346FA68B2FBF3F3CC
:1007B000FB602BE01C48FFF767FEF86026E01A4854
:1007C000FFF762FEF860144BD3F8283103F00303FF
:1007D0001846FFF7C5FD0346FA68B2FBF3F3FB606A
:1007E00014E01048FFF750FEF8600FE0FFF7ECFD53
:1007F000F8600BE0FFF7C2FDF86007E00020FFF7AC
:1008000003FEF86002E00023FB6000BFFB681846AF
:100810001037BD4680BD00BF00400E4000FF010004
:1008200002001E00050024000300200080B485B0F3
:1008300000AF78600123FB737B6803F00F03BB609C
:10084000BB68013B072B00F2B28001A252F823F0F3
:1008500071080000A3080000D3080000AF090000E1
:100860001909000049090000AF0900006D090000E6
:10087000544BD3F8943003F00703032B07D0042B19
:1008800002D0022B06D008E00223FB7308E003230A
:10089000FB7305E00423FB7302E00523FB7300BF39
:1008A00088E0484BD3F8803003F00703022B06D0D2
:1008B000042B07D0012B08D10323FB7308E002238C
:1008C000FB7305E00A23FB7302E00123FB7300BF07
:1008D00070E03C4BD3F8843003F00703013B032B5B
:1008E00016D801A252F823F0F9080000FF08000012
:1008F0000B090000050900000323FB730BE0022332
:10090000FB7308E00A23FB7305E00623FB7302E098
:100910000123FB7300BF4DE02A4BD3F8883003F06E
:100920000703022B06D0042B07D0012B08D1032389
:10093000FB7308E00223FB7305E00A23FB7302E06C
:100940000123FB7300BF35E01E4B1B6F03F0010357
:10095000002B04D0012B05D10923FB7305E00723ED
:10096000FB7302E00123FB7300BF23E0154BD3F8B8
:100970005C3103F03003102B0CD0102B02D8002B6D
:1009800005D010E0202B08D0302B09D00BE001233C
:10099000FB730BE00723FB7308E00423FB7305E004
:1009A0000823FB7302E00123FB7300BF02E0002376
:1009B000FB7300BFFB7B18461437BD465DF8047B14
:1009C000704700BF00400E4080B485B000AF786033
:1009D00039607B6803F1C063FB60FB683A681A60AA
:1009E0001437BD465DF8047B704700BF80B485B006
:1009F00000AF786039607B6803F18063FB60FB685F
:100A00003A681A601437BD465DF8047B704700BF32
:100A100080B582B000AF03463960FB71FB79002BD3
:100A20000DD0FB79012B0AD0FB79022B07D0FB7983
:100A3000032B04D0FB79042B01D0FB79052BFA7929
:100A400013465B0013441B010C3303F1804303F591
:100A500020433A68012101FA02F218461146FFF7D5
:100A6000C5FF0837BD4680BD80B582B000AF0346E4
:100A70003960FB71FB79002B0DD0FB79012B0AD07B
:100A8000FB79022B07D0FB79032B04D0FB79042BD5
:100A900001D0FB79052BFA7913465B0013441B0147
:100AA0000C3303F1804303F520433A68012101FA36
:100AB00002F218461146FFF787FF0837BD4680BD92
:100AC00090B585B000AFB9607B600346FB731346F9
:100AD000BB73FB7B002B0DD0FB7B012B0AD0FB7B78
:100AE000022B07D0FB7B032B04D0FB7B042B01D014
:100AF000FB7B052BBB7B002B0DD07B68002B05D02F
:100B0000FB7B1846B968FFF7AFFF04E0FB7B184694
:100B1000B968FFF77DFFBB68072B1DD82B48FA7B10
:100B20002A4CF97B0B465B000B441B01234459689C
:100B3000BB689B000F2404FA03F3DB431940BC7B22
:100B4000BB689B0004FA03F3194313465B0013448C
:100B50001B010344596024E01C48FA7B1B4CF97BC1
:100B60000B465B000B441B01234408331968BB6828
:100B700003F18043083B9B000F2404FA03F3DB439B
:100B80001940BC7BBB6803F18043083B9B0004FA1F
:100B900003F3194313465B0013441B01034408335A
:100BA0001960BB7B002B0DD17B68002B05D0FB7B34
:100BB0001846B968FFF758FF04E0FB7B1846B96890
:100BC000FFF726FF1437BD4690BD00BF00A00040D0
:100BD00080B485B000AF78601A4B5B69DBB203F07C
:100BE0000F03DBB29B00FB73164B1B6903F0C003C2
:100BF0009B09DAB2FB7B1343FB737B68FA7B9A7029
:100C0000104B1B69DBB203F03F03DAB27B685A700A
:100C10000C4B9B6903F0F0031B09DBB21B01FB7358
:100C2000084BDB6903F0F0031B09DAB2FB7B1343CB
:100C3000FB737B68FA7B1A701437BD465DF8047B42
:100C4000704700BFD0FF0FE080B483B000AF786082
:100C50000B46FB70FB7843F080027B689A650C378B
:100C6000BD465DF8047B704780B586B000AFF86084
:100C7000B9607A60FB70BB68002B03D12448FFF792
:100C8000FFFCB860FB78202B0CD0202B02DC002B63
:100C900005D03AE0402B08D0602B09D035E0102376
:100CA0007B6108E008237B6105E006237B6102E0AD
:100CB00004237B6100BFBB685A017B69796801FB33
:100CC00003F35B0813443B617B697A6802FB03F31F
:100CD0003A69B2FBF3F33B613B69203B3B613B6903
:100CE000DB003B613A690B4B13403B61FB681B68BF
:100CF00023F06002FB681A60FB681A68FB781A43ED
:100D0000FB681A60FB683A695A611837BD4680BDB6
:100D100040410500F8FF7F0080B485B000AF7860E7
:100D20000B46FB707A680D4B9A4203D07A680C4BE5
:100D30009A4200D100BFFB78DB43FB60FB6803F005
:100D40000503FB60FB685A007B68DA60FA787B6811
:100D5000DA601437BD465DF8047B7047000001403F
:100D60000004014080B582B000AF786039607A68D5
:100D70002F4B9A4203D07A682E4B9A4200D100BF83
:100D8000786800F059F83B689B7C002B05D07B68A5
:100D90001B6843F080427B681A603B68DB7C002B59
:100DA00005D03B681B7D78681946FFF74DFF3B680F
:100DB0005B7B1A463B681B8A1A433B68DB891A43F4
:100DC0007B685A603B6859683B689A683B681B7B44
:100DD0007868FFF749FF3B685B7D002B05D07B6897
:100DE0001B6843F480327B681A603B689B7D1B075D
:100DF00003F0E0423B68DB7D1B0503F4E0031A438C
:100E00007B681A667B685B6F23F030027B685A67E9
:100E10007B685A6F3B681B7E1A437B685A673B6846
:100E20001B781A467B68DA600837BD4680BD00BF74
:100E3000000001400004014080B483B000AF78603E
:100E40007A68224B9A4203D07A68214B9A4200D1A9
:100E500000BF7B6840F6AA62DA607B6800221A60F5
:100E60007B6841F205025A607B6800229A607B68C9
:100E700000225A617B680022DA647B68154A9A6412
:100E80007B6800221A667B6800225A677B68002212
:100E90009A677B680022DA677A680C4B9A4203D023
:100EA0007A680B4B9A4202D17B6800221A657B68F4
:100EB00000229A657A68064B9A4202D17B6800222A
:100EC000DA650C37BD465DF8047B704700000140D1
:100ED00000040140F9FF010080B483B000AF7860E6
:100EE0000B46FB7000BF7B681B6903F04003002BBF
:100EF000F9D0FA787B685A630C37BD465DF8047BFD
:100F0000704700BF80B400AF044BDB6C1B0EDBB23C
:100F10001846BD465DF8047B704700BFB081E00F06
:100F200080B487B000AFF860B9607A60FB6803F105
:100F30000473DA00BB6813449B007B617B697A68A9
:100F40001A601C37BD465DF8047B704780B586B0DB
:100F500000AF294B01225A644FF050133B6100232C
:100F6000FB60FFF7CFFF0346FB723B461846FFF7D7
:100F70002FFEFB7A8E2B22D8204BD3F8B0307B602B
:100F80001E4B7A6842F00402C3F8B02000237B6154
:100F90000EE01B483A69FB6842EA03017A6913468E
:100FA0005B0013441B01034419607B6901337B61BF
:100FB0007B69052BEDD9114B7A68C3F8B020FB7A19
:100FC0008F2B07D80D4B0D4AD26A22F07F0242F0D8
:100FD0002002DA627B78012B05D10A4B094A12689C
:100FE00042F004021A6008480D210022FFF798FF22
:100FF0001837BD4680BD00BF00000E4000400E40C7
:1010000000A0004064310E4054300E40B0B588B0AE
:1010100000AF0A23FB77FFF799FF20480121FFF774
:10102000C9FA1F480121FFF7C5FA1E480121FFF741
:10103000C1FA1D480421FFF76FFE1C4B3C461D46BC
:101040000FCD0FC495E8070084E807004FF416435E
:10105000BB603B4614481946FFF784FE124B124A08
:10106000526F42F003025A670F4A0F4B9B6F23F4F3
:10107000F85323F01F03936700200021042201236B
:10108000FFF71EFD0020012101220023FFF718FDBC
:10109000FB7F05481946FFF71FFFF9E740410500B0
:1010A00000250A0000220400000001405011000049
:1010B00008B5074B044613B10021AFF30080054B80
:1010C0001868836A03B19847204600F033F800BFE0
:1010D000000000007011000070B50E4B0E4DED1AAF
:1010E000AD1000241E46AC4204D056F82420904790
:1010F0000134F8E700F020F8084D094BED1AAD1067
:1011000000241E46AC4204D056F8242090470134F7
:10111000F8E770BD74000020740000207800002003
:101120007400002002440346934202D003F8011BDE
:10113000FAE77047FEE700BFF8B500BFF8BC08BC8F
:101140009E467047F8B500BFF8BC08BC9E46704785
:10115000050000000000000000C2010000050000C2
:10116000001000000000000000000000430000002C
:08117000140000200000000043
:08117800A4EFFF7F010000005D
:1011800000F0490200800000C0EA2101C0EA21010C
:10119000C0EA210100000000000000000000000083
:1011A000000000000000000000000000000000003F
:1011B000000000006C1100000000000000000000B2
:1011C000000000000000000000000000000000001F
:1011D000000000000000000000000000000000000F
:1011E00000000000000000000000000000000000FF
:1011F00000000000ED000000C90000000000000039
:040000030000019167
:00000001FF
